{
    "_format": "hh-sol-artifact-1",
    "contractName": "CoffeePortal",
    "sourceName": "contracts/CoffeePortal.sol",
    "abi": [
        {
            "inputs": [],
            "stateMutability": "payable",
            "type": "constructor"
        },
        {
            "anonymous": false,
            "inputs": [
                {
                    "indexed": true,
                    "internalType": "address",
                    "name": "from",
                    "type": "address"
                },
                {
                    "indexed": false,
                    "internalType": "uint256",
                    "name": "timestamp",
                    "type": "uint256"
                },
                {
                    "indexed": false,
                    "internalType": "string",
                    "name": "message",
                    "type": "string"
                },
                {
                    "indexed": false,
                    "internalType": "string",
                    "name": "name",
                    "type": "string"
                }
            ],
            "name": "NewCoffee",
            "type": "event"
        },
        {
            "inputs": [
                {
                    "internalType": "string",
                    "name": "_name",
                    "type": "string"
                },
                {
                    "internalType": "string",
                    "name": "_message",
                    "type": "string"
                },
                {
                    "internalType": "uint256",
                    "name": "_payAmount",
                    "type": "uint256"
                }
            ],
            "name": "buyCoffee",
            "outputs": [],
            "stateMutability": "payable",
            "type": "function"
        },
        {
            "inputs": [],
            "name": "getAllCoffee",
            "outputs": [
                {
                    "components": [
                        {
                            "internalType": "address",
                            "name": "donator",
                            "type": "address"
                        },
                        {
                            "internalType": "string",
                            "name": "message",
                            "type": "string"
                        },
                        {
                            "internalType": "string",
                            "name": "name",
                            "type": "string"
                        },
                        {
                            "internalType": "uint256",
                            "name": "timestamp",
                            "type": "uint256"
                        }
                    ],
                    "internalType": "struct CoffeePortal.Coffee[]",
                    "name": "",
                    "type": "tuple[]"
                }
            ],
            "stateMutability": "view",
            "type": "function"
        },
        {
            "inputs": [],
            "name": "getTotalCoffee",
            "outputs": [
                {
                    "internalType": "uint256",
                    "name": "",
                    "type": "uint256"
                }
            ],
            "stateMutability": "view",
            "type": "function"
        },
        {
            "inputs": [],
            "name": "owner",
            "outputs": [
                {
                    "internalType": "address payable",
                    "name": "",
                    "type": "address"
                }
            ],
            "stateMutability": "view",
            "type": "function"
        }
    ],
    "bytecode": "0x608060405233600160006101000a81548173ffffffffffffffffffffffffffffffffffffffff021916908373ffffffffffffffffffffffffffffffffffffffff160217905550610d80806100546000396000f3fe60806040526004361061003f5760003560e01c8063441315c5146100445780634839ee3f146100605780638da5cb5b1461008b578063d386beca146100b6575b600080fd5b61005e60048036038101906100599190610695565b6100e1565b005b34801561006c57600080fd5b5061007561035b565b60405161008291906109bc565b60405180910390f35b34801561009757600080fd5b506100a0610364565b6040516100ad919061093f565b60405180910390f35b3480156100c257600080fd5b506100cb61038a565b6040516100d8919061095a565b60405180910390f35b600066038d7ea4c68000905080821015610130576040517f08c379a00000000000000000000000000000000000000000000000000000000081526004016101279061099c565b60405180910390fd5b600160005461013f9190610ae3565b600081905550600260405180608001604052803373ffffffffffffffffffffffffffffffffffffffff16815260200185815260200186815260200142815250908060018154018082558091505060019003906000526020600020906004020160009091909190915060008201518160000160006101000a81548173ffffffffffffffffffffffffffffffffffffffff021916908373ffffffffffffffffffffffffffffffffffffffff160217905550602082015181600101908051906020019061020a92919061056d565b50604082015181600201908051906020019061022792919061056d565b506060820151816003015550506000600160009054906101000a900473ffffffffffffffffffffffffffffffffffffffff1673ffffffffffffffffffffffffffffffffffffffff168360405161027c9061092a565b60006040518083038185875af1925050503d80600081146102b9576040519150601f19603f3d011682016040523d82523d6000602084013e6102be565b606091505b5050905080610302576040517f08c379a00000000000000000000000000000000000000000000000000000000081526004016102f99061097c565b60405180910390fd5b3373ffffffffffffffffffffffffffffffffffffffff167f5d202edb9ac9aca913189e3c829f7fdbba23859e91379c70ecf7874fe39632a742868860405161034c939291906109d7565b60405180910390a25050505050565b60008054905090565b600160009054906101000a900473ffffffffffffffffffffffffffffffffffffffff1681565b60606002805480602002602001604051908101604052809291908181526020016000905b8282101561056457838290600052602060002090600402016040518060800160405290816000820160009054906101000a900473ffffffffffffffffffffffffffffffffffffffff1673ffffffffffffffffffffffffffffffffffffffff1673ffffffffffffffffffffffffffffffffffffffff16815260200160018201805461043790610bc9565b80601f016020809104026020016040519081016040528092919081815260200182805461046390610bc9565b80156104b05780601f10610485576101008083540402835291602001916104b0565b820191906000526020600020905b81548152906001019060200180831161049357829003601f168201915b505050505081526020016002820180546104c990610bc9565b80601f01602080910402602001604051908101604052809291908181526020018280546104f590610bc9565b80156105425780601f1061051757610100808354040283529160200191610542565b820191906000526020600020905b81548152906001019060200180831161052557829003601f168201915b50505050508152602001600382015481525050815260200190600101906103ae565b50505050905090565b82805461057990610bc9565b90600052602060002090601f01602090048101928261059b57600085556105e2565b82601f106105b457805160ff19168380011785556105e2565b828001600101855582156105e2579182015b828111156105e15782518255916020019190600101906105c6565b5b5090506105ef91906105f3565b5090565b5b8082111561060c5760008160009055506001016105f4565b5090565b600061062361061e84610a41565b610a1c565b90508281526020810184848401111561063f5761063e610cbe565b5b61064a848285610b87565b509392505050565b600082601f83011261066757610666610cb9565b5b8135610677848260208601610610565b91505092915050565b60008135905061068f81610d33565b92915050565b6000806000606084860312156106ae576106ad610cc8565b5b600084013567ffffffffffffffff8111156106cc576106cb610cc3565b5b6106d886828701610652565b935050602084013567ffffffffffffffff8111156106f9576106f8610cc3565b5b61070586828701610652565b925050604061071686828701610680565b9150509250925092565b600061072c83836108a2565b905092915050565b61073d81610b4b565b82525050565b61074c81610b39565b82525050565b600061075d82610a82565b6107678185610aa5565b93508360208202850161077985610a72565b8060005b858110156107b557848403895281516107968582610720565b94506107a183610a98565b925060208a0199505060018101905061077d565b50829750879550505050505092915050565b60006107d282610a8d565b6107dc8185610ac1565b93506107ec818560208601610b96565b6107f581610ccd565b840191505092915050565b600061080b82610a8d565b6108158185610ad2565b9350610825818560208601610b96565b61082e81610ccd565b840191505092915050565b6000610846601483610ad2565b915061085182610cde565b602082019050919050565b6000610869601383610ad2565b915061087482610d07565b602082019050919050565b600061088c600083610ab6565b915061089782610d30565b600082019050919050565b60006080830160008301516108ba6000860182610743565b50602083015184820360208601526108d282826107c7565b915050604083015184820360408601526108ec82826107c7565b9150506060830151610901606086018261090c565b508091505092915050565b61091581610b7d565b82525050565b61092481610b7d565b82525050565b60006109358261087f565b9150819050919050565b60006020820190506109546000830184610734565b92915050565b600060208201905081810360008301526109748184610752565b905092915050565b6000602082019050818103600083015261099581610839565b9050919050565b600060208201905081810360008301526109b58161085c565b9050919050565b60006020820190506109d1600083018461091b565b92915050565b60006060820190506109ec600083018661091b565b81810360208301526109fe8185610800565b90508181036040830152610a128184610800565b9050949350505050565b6000610a26610a37565b9050610a328282610bfb565b919050565b6000604051905090565b600067ffffffffffffffff821115610a5c57610a5b610c8a565b5b610a6582610ccd565b9050602081019050919050565b6000819050602082019050919050565b600081519050919050565b600081519050919050565b6000602082019050919050565b600082825260208201905092915050565b600081905092915050565b600082825260208201905092915050565b600082825260208201905092915050565b6000610aee82610b7d565b9150610af983610b7d565b9250827fffffffffffffffffffffffffffffffffffffffffffffffffffffffffffffffff03821115610b2e57610b2d610c2c565b5b828201905092915050565b6000610b4482610b5d565b9050919050565b6000610b5682610b5d565b9050919050565b600073ffffffffffffffffffffffffffffffffffffffff82169050919050565b6000819050919050565b82818337600083830152505050565b60005b83811015610bb4578082015181840152602081019050610b99565b83811115610bc3576000848401525b50505050565b60006002820490506001821680610be157607f821691505b60208210811415610bf557610bf4610c5b565b5b50919050565b610c0482610ccd565b810181811067ffffffffffffffff82111715610c2357610c22610c8a565b5b80604052505050565b7f4e487b7100000000000000000000000000000000000000000000000000000000600052601160045260246000fd5b7f4e487b7100000000000000000000000000000000000000000000000000000000600052602260045260246000fd5b7f4e487b7100000000000000000000000000000000000000000000000000000000600052604160045260246000fd5b600080fd5b600080fd5b600080fd5b600080fd5b6000601f19601f8301169050919050565b7f4661696c656420746f2073656e64204574686572000000000000000000000000600082015250565b7f496e73756666696369656e7420616d6f756e7400000000000000000000000000600082015250565b50565b610d3c81610b7d565b8114610d4757600080fd5b5056fea26469706673582212204c127449d9e75628906b4a3d911418887b81adb67264722e49fa090beacd26f964736f6c63430008060033",
    "linkReferences": {},
    "deployedLinkReferences": {}
}